:02000000732962
:10000800FF00030E83018316C2000A08C3008A0199
:1000180070088312A0008030F00080302206700241
:10002800031D182821080C3C03182D288030003A9D
:10003800F000803083163806700203182928013032
:10004800B60001308312B1002C288312A101A2014D
:100058003028A10A0319A20A83163808013A031D99
:100068004A288030F000803083126F067002031D2A
:100078003F286E08C83C0318452802308316B8008C
:1000880049288312EE0A0319EF0AA62883163808AE
:10009800033A031D64288030F000803083126F0615
:1000A8007002031D59286E08C83C03185F280430E5
:1000B8008316B80063288312EE0A0319EF0AA628EC
:1000C80083163808053A031D7F288030013AF0006E
:1000D800803083126F067002031D74286E08F43C8A
:1000E80003187A2806308316B8007E288312EE0A91
:1000F8000319EF0AA62883163808073A031D99281A
:100108008030F000803083126F067002031D8E2845
:100118006E08643C0318942808308316B8009828A1
:100128008312EE0A0319EF0AA62883163808093A3B
:100138000319A3283808003A0319A328A62883120C
:10014800EE01EF018312643081000B112008F000EA
:10015800831643088A00420E8300FF0E7F0E0900B3
:10016800831603139818BA280000B4284D08831280
:0401780099000800E2
:10017C00023083120313FC004930FD00FD0BC42830
:0A018C00FC0BC4280000000008006E
:0E0196008316031341088A0040088200080007
:1001A40083160313CC014A0884000008CB004B08D3
:1001B400003A0319E8284B08CD00B4208316CC0A72
:0E01C4004C084A0784000008CB00D928080028
:1001D200013083160313B5008312061305160514A6
:1001E20083163708013A031DF828831285148316F3
:1001F2003608013A031D002983128515022983124C
:100202008511B9308316CA00D220FF30B80083129C
:04021200B10108002E
:1002160083160313C9014508F1000130F000710887
:1002260003191929F00D7010FF3E13297008C80034
:100236004408840070080005F10071080130031DB0
:100246000030F0004708F006031942294608003C32
:1002560003183229BE20BE208316C6032929440866
:10026600840048080005F10071080130031D0030C4
:10027600F0004708F00603194229FF30C900490873
:04028600F00008007C
:10028A008316031398169030831298008316061566
:10029A00861283128C1E54291A08F0004E2908006F
:0E02AA000030831203138C1A0130F00008009C
:1002B800831203131A08F100981C642918121816DF
:0602C8007108F0000800BF
:1002CE00CB208A110A128000840AC00A0319C10ABF
:0802DE00F003031D672908006D
:1002E60058237E30831603138F0033309900181578
:1002F60045210630FB001330FC00AD30FD00FD0B40
:100306008229FC0B8229FB0B8229000000003B306E
:100316008316CA00D2209B0107309C00E43085007A
:10032600BC3086008312850186018B160B1183165D
:100336008112011281110115811401146430831296
:1003460081008B1732308316CA00D22083123108FF
:10035600013A031DAF29E920552170080319F02938
:100366005C2170088316BF007008453A031DC0293A
:100376003508003A031DC029E92083122308A4008A
:1003860083163F082B3A031DCB2901308312A300A5
:1003960083163F082D3A031DD2298312A301831623
:1003A6003F08423A031DD9290130B7003F08483AB1
:1003B600031DDE29B7018312240823060319E52944
:1003C600A101A2012C308316CA00D2203F08CD001D
:1003D600B4202A308316CA00D22083163508003A84
:1003E600031DFB2983122318FA298511FB2985157C
:1003F60083163718012A83128610032A831286145D
:100406008030003AF00080308316380670020318F8
:10041600182A83120519182A83163508003A031D6F
:10042600182A2530CA00D220E92083163808003A57
:10043600031D452A0630C4000330C5001430C6002B
:10044600C7010B2170080319442A3F30CA00D22085
:100456003708013A031D312A8312851483120610C8
:100466000512051006138316B501B6010130B80052
:100476008312EE01EF01A101A201A0308316CA008A
:10048600D220E22A3808013A031D532A8312861D18
:10049600522AFF308316B8006830CA00D220E22AFA
:1004A60083163808023A031D742AB030CA00D220D7
:1004B600831206170230FB003830FC00AD30FD0019
:1004C600FD0B632AFC0B632AFB0B632A033083169E
:1004D600B8008312EE01EF01AB308316CA00D220BA
:1004E600E22A3808033A031D8E2A8312861D812AC2
:1004F600FF308316B800A530CA00D2208312061A30
:100506008D2AFF308316B8008312061462308316D4
:10051600CA00D220E22A83163808043A031DA02A0C
:100526004E30CA00D2208312EE01EF010530831649
:10053600B8004930CA00D220E22A3808053A031921
:10054600A92A3808073A0319A92AB62A8312061ACD
:10055600B52AFF308316B80083120614433083167B
:10056600CA00D220E22A83163808063A031DCD2A8D
:100576008312861DCD2A5D308316CA00D2208312CF
:100586008510EE01EF0107308316B8005830CA0017
:10059600D220E22A83163808083A031DD82A533097
:1005A600CA00D2200930B800E22A3808FF3A031DF3
:1005B600E22A8312861DE22A06138316B801A929A8
:0205C600E32A26
:1006B000213084004D3083120313F000E93083169B
:1006C000C0000230C1006721A030840005308312D1
:1006D0000313F00050308316C0000330C1006721BF
:1006E0006E308400023083120313F00055308316FD
:1006F000C0000330C1006721A53084001A30831286
:100700000313F00036308316C0000330C1006721A8
:020710000800DF
:0405D20000340034BD
:0205D6000034EF
:0205D8000034ED
:0A05DA004434453453340A3400342D
:0405E4000A340034A1
:0A05E800413443344B342034003416
:0205F2000034D3
:1005F40049346E346934743420346F346B340A34BF
:020604000034C0
:08060600483469340A34003461
:08060E00413452340A34003477
:0C06160041344634203433340A340034BC
:0A0622004134203435340A3400342A
:0A062C004134203434340A34003421
:0A0636004134203439340A34003412
:0A0640004134203437340A3400340A
:0A064A004134203436340A34003401
:0C06540041344634203432340A3400347F
:0C06600041344634203431340A34003474
:0C066C0041344634203431340A34003468
:0A0678004134203433340A340034D6
:0A0682004134203432340A340034CD
:02068C00003438
:02068E00003436
:02069000013433
:02069200003432
:0C06940054345234493450340A340034D9
:0A06A0004134203431340A340034B0
:0406AA0000340034E4
:04400E00703FFF3FC1
:00000001FF
