:02000000732962
:10000800FF00030E83018316C2000A08C3008A0199
:1000180070088312A0008030F00080302206700241
:10002800031D18282108123C03182D288030003A97
:10003800F000803083163806700203182928013032
:10004800B60001308312B1002C288312A101A2014D
:100058003028A10A0319A20A83163808013A031D99
:100068004A288030F000803083126F067002031D2A
:100078003F286E08C83C0318452802308316B8008C
:1000880049288312EE0A0319EF0AA62883163808AE
:10009800033A031D64288030F000803083126F0615
:1000A8007002031D59286E08C83C03185F280430E5
:1000B8008316B80063288312EE0A0319EF0AA628EC
:1000C80083163808053A031D7F288030013AF0006E
:1000D800803083126F067002031D74286E08F43C8A
:1000E80003187A2806308316B8007E288312EE0A91
:1000F8000319EF0AA62883163808073A031D99281A
:100108008030F000803083126F067002031D8E2845
:100118006E08643C0318942808308316B8009828A1
:100128008312EE0A0319EF0AA62883163808093A3B
:100138000319A3283808003A0319A328A62883120C
:10014800EE01EF018312643081000B112008F000EA
:10015800831643088A00420E8300FF0E7F0E0900B3
:10016800831603139818BA280000B4284D08831280
:0401780099000800E2
:10017C00023083120313FC004930FD00FD0BC42830
:0A018C00FC0BC4280000000008006E
:0E0196008316031341088A0040088200080007
:1001A40083160313CC014A0884000008CB004B08D3
:1001B400003A0319E8284B08CD00B4208316CC0A72
:0E01C4004C084A0784000008CB00D928080028
:1001D200013083160313B5008312061305160514A6
:1001E20083163708013A031DF828831285148316F3
:1001F2003608013A031D002983128515022983124C
:100202008511B9308316CA00D220FF30B80083129C
:04021200B10108002E
:1002160083160313C9014508F1000130F000710887
:1002260003191929F00D7010FF3E13297008C80034
:100236004408840070080005F10071080130031DB0
:100246000030F0004708F006031942294608003C32
:1002560003183229BE20BE208316C6032929440866
:10026600840048080005F10071080130031D0030C4
:10027600F0004708F00603194229FF30C900490873
:04028600F00008007C
:10028A008316031398169030831298008316061566
:10029A00861283128C1E54291A08F0004E2908006F
:0E02AA000030831203138C1A0130F00008009C
:1002B800831203131A08F100981C642918121816DF
:0602C8007108F0000800BF
:1002CE00CB208A110A128000840AC00A0319C10ABF
:0802DE00F003031D672908006D
:1002E60060237E30831603138F0083120317851055
:1002F6000511851105160C30831603139900181580
:1003060045210630FB001330FC00AD30FD00FD0B2F
:100316008A29FC0B8A29FB0B8A29000000003B3046
:100326008316CA00D2209B0107309C00E43085006A
:10033600BC3086008312850186018B160B1183164D
:100346008112011281110115811401146430831286
:1003560081008B1732308316CA00D22083123108EF
:10036600013A031DB729E9206400552170080319D5
:10037600F9295C2170088316BF007008453A031DF1
:10038600C9293508003A031DC929E9208312230823
:10039600A40083163F082B3A031DD429013083128B
:1003A600A30083163F082D3A031DDB298312A30100
:1003B60083163F08423A031DE2290130B7003F0881
:1003C600483A031DE729B7018312240823060319B7
:1003D600EE29A101A2012C308316CA00D2203F08C3
:1003E600CD00B4202A308316CA00D22083163508E1
:1003F600003A031D042A83122318032A8511042AAE
:100406008515831637180A2A831286100C2A83123A
:1004160086148030003AF000803083163806700269
:100426000318212A83120519212A83163508003A52
:10043600031D212A2530CA00D220E9208316380858
:10044600003A031D4E2A0630C4000330C50014309E
:10045600C600C7010B21700803194D2A3F30CA0098
:10046600D2203708013A031D3A2A831285148312D3
:1004760006100512051006138316B501B6010130E4
:10048600B8008312EE01EF01A101A201A03083168C
:10049600CA00D220EB2A3808013A031D5C2A8312CF
:1004A600861D5B2AFF308316B8006830CA00D2204A
:1004B600EB2A83163808023A031D7D2AB030CA009B
:1004C600D220831206170230FB003830FC00AD3014
:1004D600FD00FD0B6C2AFC0B6C2AFB0B6C2A03300F
:1004E6008316B8008312EE01EF01AB308316CA0003
:1004F600D220EB2A3808033A031D972A8312861D59
:100506008A2AFF308316B800A530CA00D22083128B
:10051600061A962AFF308316B80083120614623034
:100526008316CA00D220EB2A83163808043A031D24
:10053600A92A4E30CA00D2208312EE01EF010530FF
:100546008316B8004930CA00D220EB2A3808053A8B
:100556000319B22A3808073A0319B22ABF2A8312A6
:10056600061ABE2AFF308316B800831206144330DB
:100576008316CA00D220EB2A83163808063A031DD2
:10058600D62A8312861DD62A5D308316CA00D2204B
:1005960083128510EE01EF0107308316B80058303C
:1005A600CA00D220EB2A83163808083A031DE12A2E
:1005B6005330CA00D2200930B800EB2A3808FF3A77
:1005C600031DEB2A8312861DEB2A06138316B80138
:0405D600B129EC2A31
:1006C000213084004D3083120313F000F230831682
:1006D000C0000230C1006721A030840005308312C1
:1006E0000313F00059308316C0000330C1006721A6
:1006F0006E308400023083120313F0005E308316E4
:10070000C0000330C1006721A53084001A30831275
:100710000313F0003F308316C0000330C10067218F
:020720000800CF
:0405E40000340034AB
:0205E8000034DD
:0205EA000034DB
:0A05EC004434453453340A3400341B
:0405F6000A3400348F
:0A05FA00413443344B342034003404
:020604000034C0
:1006060049346E346934743420346F346B340A34AC
:020616000034AE
:08061800483469340A3400344F
:08062000413452340A34003465
:0C06280041344634203433340A340034AA
:0A0634004134203435340A34003418
:0A063E004134203434340A3400340F
:0A0648004134203439340A34003400
:0A0652004134203437340A340034F8
:0A065C004134203436340A340034EF
:0C06660041344634203432340A3400346D
:0C06720041344634203431340A34003462
:0C067E0041344634203431340A34003456
:0A068A004134203433340A340034C4
:0A0694004134203432340A340034BB
:02069E00003426
:0206A000003424
:0206A200013421
:0206A400003420
:0C06A60054345234493450340A340034C7
:0A06B2004134203431340A3400349E
:0406BC0000340034D2
:04400E00743FFF3FBD
:00000001FF
