:02000000912944
:10000800FF00030E83018316CF000A08CE008A0181
:1000180070088312A0008030F00080302306700240
:10002800031D18282208323C031832288030003A71
:10003800F000803083164406700203182E288312BD
:100048006F08013A031D2E280130EE000130831697
:10005800C30031288312A201A30136288312A20A01
:100068000319A30A83164408013A031D5028803057
:10007800F000803083126D067002031D45286C085D
:10008800C83C03184B2802308316C4004F2883123B
:10009800EC0A0319ED0AAC2883164408033A031D39
:1000A8006A288030F000803083126D067002031DCC
:1000B8005F286C08C83C0318652804308316C40000
:1000C80069288312EC0A0319ED0AAC288316440840
:1000D800053A031D85288030013AF00080308312EC
:1000E8006D067002031D7A286C08F43C03188028FA
:1000F80006308316C40084288312EC0A0319ED0A1B
:10010800AC2883164408073A031D9F288030F00066
:10011800803083126D067002031D94286C08643CBD
:1001280003189A2808308316C4009E288312EC0A04
:100138000319ED0AAC2883164408093A0319A928BB
:100148004408003A0319A928AC288312EC01ED01F0
:1001580083128030F00080302D067002031DB6280F
:100168002C08003C0318BC280130AC02031CAD036A
:10017800643081000B112008F00083164E088A00B5
:0A0188004F0E8300FF0E7F0E0900EA
:10019200831603139818CF280000C9285908831220
:0401A20099000800B8
:1001A600023083120313FC004930FD00FD0BD928F1
:0A01B600FC0BD9280000000008002F
:0E01C000831603134D088A004C0882000800C5
:1001CE0083160313D801560884000008D700570879
:1001DE00003A0319FD285708D900C9208316D80AFA
:0E01EE005808560784000008D700EE280800C5
:1001FC00013083160313BA00831206130516051477
:10020C006F08013A031D0B2985106E08013A031D76
:10021C001129851512298511C5308316D600E720C2
:08022C00FF30C400C30108000B
:1002340083160313BA0183120617051205108514D9
:0E0244008511BB308316D600E720C4010800E8
:0E0252000030831203138C1A0130F0000800F4
:10026000E0208A110A128000840ACC0A0319CD0A00
:08027000F003031D3029080012
:1002780083160313D5015108F1000130F00071080D
:1002880003194A29F00D7010FF3E44297008D40064
:100298005008840070080005F10071080130031D42
:1002A8000030F0005308F006031973295208003C87
:1002B80003186329D320D3208316D2035A29500860
:1002C800840054080005F10071080130031D003056
:1002D800F0005308F00603197329FF30D5005508BC
:0402E800F00008001A
:1002EC00831203131A08F100981C7E291812181691
:0602FC007108F00008008B
:1003020083160313981690308312980083160615ED
:10031200861283128C1E90291A08F0008A2908007E
:10032200CE237E30831603138F00831203178510AA
:100332000511851105160C30831603139900181543
:1003420081210630FB001330FC00AD30FD00FD0BB7
:10035200A829FC0BA829FB0BA829000000002E30BD
:100362008316D600E7209B0107309C00E43085000D
:10037200BC30860002308312850086018B160B1179
:100382008316811201128111011581140114811346
:100392006430831281008B1734308316D600E72035
:1003A20083164308013A031DD729FE20640000305A
:1003B2008312861B0130B300330832060319EB297E
:1003C200A201A3013308013A031DEA290130A10069
:1003D200EB29A1013308B200292170080319452A2B
:1003E200762170088316CB007008453A031DFE295A
:1003F2003A08003A031DFE29FE204B08523A031D1B
:10040200072A3A08013A031D072A1A2183122108F2
:10041200A40083164B082B3A031D122A01308312C3
:10042200A10083164B082D3A031D192A8312A1013C
:1004320083164B08423A031D212A01308312EF0032
:1004420083164B08483A031D282A8312EF018316AC
:100452004B08413A031D332A19308312AC00003095
:10046200AD00051483122408210603193A2AA201B9
:10047200A30127308316D600E7204B08D900C920F4
:1004820025308316D600E72083163A08003A031D6A
:10049200592A831221184F2A8511502A85150030B6
:1004A2002D06031D562A00302C06031D592A05105D
:1004B20083126F185E2A86105F2A86148030003AF3
:1004C200F00080308316440670020318742A8312E7
:1004D2000519742A83163A08003A031D742A3D301E
:1004E200D600E720FE2083164408003A031DA22A04
:1004F2000630D0000330D1001430D200D3013C21A9
:1005020070080319A12AA030D600E72083126F08D1
:10051200013A031D8D2A85100610051205100613D7
:100522008316BA018312EE0101308316C4008312CE
:10053200EC01ED01A201A30167308316D600E7208A
:100542004C2B4408013A031DB02A8312861DAF2AA0
:10055200FF308316C400A430D600E7204C2B83164C
:100562004408023A031DD12AB530D600E72083128F
:1005720006170330FB000830FC007730FD00FD0B4E
:10058200C02AFC0BC02AFB0BC02A03308316C4000E
:100592008312EC01ED01B0308316D600E7204C2B1C
:1005A2004408033A031DF32A8312861DDE2AFF3014
:1005B2008316C400AA30D600E72083160630D00086
:1005C2000430D1000130D200D3013C21700803195C
:1005D200F22AFF30C400831206144C308316D60070
:1005E200E7204C2B4408043A031D042B4730D60065
:1005F200E7208312EC01ED0105308316C40042307E
:10060200D600E7204C2B4408053A03190D2B440869
:10061200073A03190D2B212B0630D0000430D100EC
:100622000130D200D3013C2170080319202BFF3086
:10063200C4008312061452308316D600E7204C2BD6
:100642004408063A031D372B8312861D372B62306E
:100652008316D600E72083128514EC01ED010730E2
:100662008316C4005D30D600E7204C2B8316440865
:10067200083A031D422B5830D600E7200930C40047
:100682004C2B4408FF3A031D4C2B83120613861D84
:0A0692004C2B8316C401D1294D2B17
:10079C00213084004D3083120313F0005330831644
:1007AC00CC000330CD003021A03084001A30F00092
:1007BC00A0308316CC000330CD0030216E30840085
:1007CC000230F000CB308316CC000330CD0030214A
:1007DC00BA3084001130F000BA308316CC000330EC
:0607EC00CD0030210800E1
:0206A60000341E
:0406A80000340034E6
:0206AC00003418
:0406AE000A340034D6
:0A06B200413443344B34203400344B
:0406BC0000340034D2
:0806C000483469340A340034A7
:0206C8000034FC
:0206CA000034FA
:1006CC0049346E346934743420346F346B340A34E6
:0206DC000034E8
:0A06DE004434453453340A34003428
:0A06E8004134203435340A34003464
:0A06F2004134203434340A3400345B
:0C06FC0041344634203432340A340034D7
:0C07080041344634203433340A340034C9
:0A0714004134203439340A34003433
:0A071E004134203437340A3400342B
:0A0728004134203436340A34003422
:0A0732004134203431340A3400341D
:04073C000034003451
:08074000413452340A34003444
:0C07480041344634203431340A3400348B
:0C07540041344634203431340A3400347F
:0A0760004134203433340A340034ED
:0A076A004134203432340A340034E4
:0207740000344F
:1007760055346E3474347234693470340A34003447
:0207860000343D
:0207880000343B
:0C078A0054345234493450340A340034E2
:0207960000342D
:0207980001342A
:04400E00743FFF3FBD
:00000001FF
