:020000001529C0
:10000800FF00030E83018316BC000A08BD008A01A5
:1000180070088312A0008030F00080302206700241
:10002800031D182821080C3C03182C288030003A9E
:10003800F00080306E0670020318292801308316FC
:10004800B10001308312B1002B28A101A2012F2891
:10005800A10A0319A20A6E08013A031D4528803037
:10006800F000803069067002031D3C286808C83C0F
:10007800031841280230EE004428E80A0319E90A67
:1000880093286E08033A031D5B288030F000803007
:1000980069067002031D52286808C83C03185728CF
:1000A8000430EE005A28E80A0319E90A93286E0872
:1000B800053A031D72288030013AF0008030690645
:1000C8007002031D69286808F43C03186E2806307E
:1000D800EE007128E80A0319E90A93286E08073A1E
:1000E800031D88288030F000803069067002031DE7
:1000F8007F286808643C031884280830EE008728A5
:10010800E80A0319E90A93286E08093A031991289D
:100118006E08003A031991289328E801E901643030
:1001280081000B112008F00083163D088A003C0E60
:080138008300FF0E7F0E090099
:10014000831603139818A6280000A02841088312DC
:04015000990008000A
:0E015400831603133B088A003A088200080055
:1001620083160313C0013E0884000008BF003F0845
:10017200003A0319C7283F08C100A0208316C00A0D
:0E01820040083E0784000008BF00B8280800AF
:100190008316031398169030831298008316061561
:1001A000861283128C1ED7281A08F000D128080066
:1001B000831203131A08F100981CE028181218166D
:0601C0007108F0000800C8
:1001C600AA208A110A128000840ABA0A0319BB0AF5
:0801D600F003031DE3280800FB
:0E01DE000030831203138C1A0130F000080069
:1001EC00013083160313B2008312061305166F0831
:1001FC00013A031D0229851483163108013A031DA7
:10020C000A29831285150C2983128511B3308316A4
:0E021C00BE00B120FF308312EE00B1010800D9
:10022A00CE227E30831603138F00333099001815BF
:10023A00C8200630FB001330FC00AD30FD00FD0B7A
:10024A002429FC0B2429FB0B2429000000003B3045
:10025A008316BE00B1209B0107309C00E530850063
:10026A00BC3086008312850186018B160B1183161A
:10027A008112011281110115811401146430831253
:10028A0081008B1732308316BE00B12083123108E9
:10029A00013A031D5129F620EF2070080319952908
:1002AA00D82070088316B9007008453A031D6229E0
:1002BA003208003A031D6229F62083122308A4009B
:1002CA00831639082B3A031D6D2901308312A300C6
:1002DA00831639082D3A031D74298312A301831644
:1002EA003908423A031D7C2901308312EF00831634
:1002FA003908483A031D83298312EF01831224081F
:10030A00230603198A29A101A2012C308316BE00F3
:10031A00B1203908C100A0202A308316BE00B120BE
:10032A0083163208003A031DA029831223189F2935
:10033A008511A029851583126F18A5298610A6296B
:10034A0086148030003AF00080306E06700203187E
:10035A00B9290519B92983163208003A031DB929A2
:10036A002530BE00B120F62083126E08003A031D24
:10037A00DC298619DB296A308316BE00B120831274
:10038A006F08013A031DCA298514061005120613BF
:10039A008316B201B10101308312EE00E801E901CE
:1003AA00A101A20163308316BE00B1205F2A831225
:1003BA006E08013A0319E6296E08033A0319E62979
:1003CA00F929861DEE29FF30EE00AB308316BE00F8
:1003DA00B1208312061AF829FF30EE000614A53060
:1003EA008316BE00B1205F2A83126E08023A031DEB
:1003FA000D2AA0308316BE00B120831206170330DF
:10040A00EE00E801E9015E308316BE00B1205F2AE2
:10041A0083126E08043A031D202A4A308316BE004E
:10042A00B1208312E801E9010530EE004530831658
:10043A00BE00B1205F2A83126E08053A03192A2AE0
:10044A006E08073A03192A2A342A061A332AFF3071
:10045A00EE0006143F308316BE00B1205F2A8312D5
:10046A006E08063A031D4A2A861D4A2A59308316FF
:10047A00BE00B12083128510E801E9010730EE00C1
:10048A0054308316BE00B1205F2A83126E08083AE0
:10049A00031D572A4F308316BE00B120093083123C
:1004AA00EE005F2A6E08FF3A031D5F2A861D5F2A47
:0804BA000613EE014B29602A34
:10059C00213084004D3083120313F0006630831633
:1005AC00BA000230BB00E320A0308400113083126B
:1005BC000313F000B3308316BA000230BB00E32003
:1005CC006E308400023083120313F000CC3083169B
:1005DC00BA000230BB00E320B13084000830831233
:1005EC000313F000C4308316BA000230BB00E320C2
:0205FC000800F5
:0404CC0000340034C4
:0204D0000034F6
:0204D2000034F4
:0A04D4004434453453340A34003434
:0404DE000A340034A8
:0A04E200413443344B34203400341D
:0204EC000034DA
:1004EE0049346E346934743420346F346B340A34C6
:0204FE000034C8
:08050000483469340A34003468
:0C05080041344634203433340A340034CB
:0A0514004134203435340A34003439
:0A051E004134203434340A34003430
:0A0528004134203439340A34003421
:0A0532004134203437340A34003419
:0A053C004134203436340A34003410
:0A0546004134203433340A34003409
:0A0550004134203431340A34003401
:04055A000034003435
:08055E00413452340A34003428
:0A0566004134203432340A340034EA
:0C05700041344634203432340A34003464
:0C057C0041344634203431340A34003459
:0205880000343D
:02058A0000343B
:0C058C0054345234493450340A340034E2
:0205980000342D
:02059A0001342A
:04400E00703FFF3FC1
:00000001FF
