:02000000712964
:10000800FF00030E83018316C4000A08C5008A0195
:1000180070088312A0008030F00080302206700241
:10002800031D18282108123C03182D288030003A97
:10003800F000803083163A06700203182928013030
:10004800B80001308312EF002C288312A101A2010D
:100058003028A10A0319A20A83163A08013A031D97
:1000680047288030F000803026067002031D3E28A5
:100078002508C83C031843280230BA004628A50AB8
:100088000319A60A95283A08033A031D5D2880300B
:10009800F000803026067002031D54282508C83C4D
:1000A800031859280430BA005C28A50A0319A60ABF
:1000B80095283A08053A031D74288030013AF00063
:1000C800803026067002031D6B282508F43C0318AF
:1000D80070280630BA007328A50A0319A60A9528BD
:1000E8003A08073A031D8A288030F0008030260637
:1000F8007002031D81282508643C031886280830EF
:10010800BA008928A50A0319A60A95283A08093ABF
:10011800031993283A08003A031993289528A5014A
:10012800A6018030F0008030831224067002031D7F
:100138009F282308003C0318A5280130A302031CAC
:10014800A403643081000B112008F00083164508D1
:0C0158008A00440E8300FF0E7F0E090099
:10016400831603139818B8280000B2284F08831286
:0401740099000800E6
:10017800023083120313FC004930FD00FD0BC22836
:0A018800FC0BC22800000000080074
:0E0192008316031343088A0042088200080007
:1001A00083160313CE014C0884000008CD004D08CF
:1001B000003A0319E6284D08CF00B2208316CE0A74
:0E01C0004E084C0784000008CD00D728080028
:1001CE00013083160313B7008312061305160514A8
:1001DE0083163908013A031DF628831285108316FB
:1001EE003808013A031DFE28831285150029831253
:1001FE008511BB308316CC00D020FF30BA0083129D
:04020E00EF010800F4
:1002120083160313CB014708F1000130F000710887
:1002220003191729F00D7010FF3E11297008CA003A
:100232004608840070080005F10071080130031DB2
:100242000030F0004908F006031940294808003C34
:1002520003183029BC20BC208316C803272946086E
:1002620084004A080005F10071080130031D0030C6
:10027200F0004908F00603194029FF30CB004B0873
:04028200F000080080
:10028600831603139816903083129800831606156A
:10029600861283128C1E52291A08F0004C29080077
:0E02A6000030831203138C1A0130F0000800A0
:1002B400831203131A08F100981C622918121816E5
:0602C4007108F0000800C3
:1002CA00C9208A110A128000840AC20A0319C30AC1
:0802DA00F003031D6529080073
:1002E20070237E30831603138F0083120317851049
:1002F2000511851105160C30831603139900181584
:1003020043210630FB001330FC00AD30FD00FD0B35
:100312008829FC0B8829FB0B8829000000003C304F
:100322008316CC00D0209B0107309C00E43085006E
:10033200BC30860002308312850086018B160B11B9
:100342008316811201128111011581140114643086
:10035200831281008B1733308316CC00D020831296
:100362006F08013A031DB629E72064005321700883
:100372000319022A5A2170088316C1007008453AEF
:10038200031DC8293708003A031DC829E720831234
:100392002508B200831641082B3A031DD3290130E8
:1003A2008312A500831641082D3A031DDA29831210
:1003B200A50183164108423A031DE1290130B90023
:1003C2004108483A031DE629B9014108413A031D93
:1003D200F02919308312A3000030A40005148312FF
:1003E200320825060319F729A101A2012D3083162F
:1003F200CC00D0204108CF00B2202B308316CC0095
:10040200D02083163708003A031D162A83122518B6
:100412000C2A85110D2A851500302406031D132A86
:1004220000302306031D162A0510831639181C2ACC
:10043200831286101E2A831286148030003AF0003E
:10044200803083163A0670020318332A8312051984
:10045200332A83163708003A031D332A2630CC008C
:10046200D020E72083163A08003A031D602A06309E
:10047200C6000330C7001430C800C9010921700842
:1004820003195F2A4030CC00D0203908013A031DFD
:100492004C2A8312851083120610051205100613CA
:1004A2008316B701B8010130BA00A501A601831273
:1004B200A101A201A0308316CC00D020F92A3A086B
:1004C200013A031D6E2A8312861D6D2AFF308316A0
:1004D200BA006930CC00D020F92A83163A08023AD1
:1004E200031D8D2AB230CC00D020831206170330B0
:1004F200FB000830FC007730FD00FD0B7E2AFC0B70
:100502007E2AFB0B7E2A03308316BA00A501A601C0
:10051200AD30CC00D020F92A3A08033A031DA72AAD
:100522008312861D9A2AFF308316BA00A730CC00A8
:10053200D0208312061AA62AFF308316BA0083122D
:10054200061463308316CC00D020F92A83163A08A9
:10055200043A031DB72A4F30CC00D020A501A601D2
:100562000530BA004A30CC00D020F92A3A08053AC0
:100572000319C02A3A08073A0319C02ACD2A83125E
:10058200061ACC2AFF308316BA00831206144430AE
:100592008316CC00D020F92A83163A08063A031DA6
:1005A200E42A8312861DE42A5E308316CC00D02012
:1005B200831285148316A501A6010730BA005930AB
:1005C200CC00D020F92A83163A08083A031DEF2AF4
:1005D2005430CC00D0200930BA00F92A3A08FF3A48
:1005E200031DF92A8312861DF92A06138316BA01FE
:0405F200B029FA2A08
:1006E000213084004E3083120313F0000030831653
:1006F000C2000330C3006521A0308400173083128C
:10070000F0004E308316C2000330C30065216F3005
:10071000840001308312F00003308316C2000030E1
:10072000C3006521B73084000A308312F0006530C1
:0C0730008316C2000330C30065210800DE
:020006000034C4
:04060000003400348E
:04060400003400348A
:020608000034BC
:0A060A004434453453340A340034FC
:040614000A34003470
:0A061800413443344B3420340034E5
:020622000034A2
:1006240049346E346934743420346F346B340A348E
:02063400003490
:08063600483469340A34003431
:08063E00413452340A34003447
:0C06460041344634203433340A3400348C
:0A0652004134203435340A340034FA
:0A065C004134203434340A340034F1
:0A0666004134203439340A340034E2
:0A0670004134203437340A340034DA
:0A067A004134203436340A340034D1
:0C06840041344634203432340A3400344F
:0C06900041344634203431340A34003444
:0A069C004134203431340A340034B4
:0406A60000340034E8
:0C06AA0041344634203431340A3400342A
:0A06B6004134203433340A34003498
:0A06C0004134203432340A3400348F
:0206CA000034FA
:0206CC000034F8
:0206CE000134F5
:0206D0000034F4
:0C06D20054345234493450340A3400349B
:04400E00743FFF3FBD
:00000001FF
