:02000000922943
:10000800FF00030E83018316CC000A08CD008A0185
:1000180070088312A0008030F0008030260670023D
:10002800031D18282508323C031830288030003A70
:10003800F000803083164806700203182C28400808
:10004800013A031D2C280130BF000130C7002F28BA
:100058008312A501A60134288312A50A0319A60A4A
:1000680083164808013A031D4E288030F00080307E
:1000780083126E067002031D43286D08C83C0318DE
:10008800492802308316C8004D288312ED0A031947
:10009800EE0AAA2883164808033A031D6828803008
:1000A800F000803083126E067002031D5D286D0813
:1000B800C83C0318632804308316C80067288312D5
:1000C800ED0A0319EE0AAA2883164808053A031D03
:1000D80083288030013AF000803083126E06700267
:1000E800031D78286D08F43C03187E280630831613
:1000F800C80082288312ED0A0319EE0AAA2883167B
:100108004808073A031D9D288030F000803083128C
:100118006E067002031D92286D08643C0318982827
:1001280008308316C8009C288312ED0A0319EE0ACA
:10013800AA2883164808093A0319A7284808003A44
:100148000319A728AA288312ED01EE018312803033
:10015800F000803022067002031DB4282108003CFC
:100168000318BA280130A102031CA20364308100DD
:100178000B112008F00083164D088A004C0E8300EE
:06018800FF0E7F0E0900CE
:10018E00831603139818CD280000C728570883122A
:04019E0099000800BC
:1001A200023083120313FC004930FD00FD0BD728F7
:0A01B200FC0BD72800000000080035
:0E01BC00831603134B088A004A0882000800CD
:1001CA0083160313D601540884000008D500550885
:1001DA00003A0319FB285508D700C7208316D60A08
:0E01EA005608540784000008D500EC280800D1
:1001F800013083120313EF00061305160514831646
:100208004008013A031D0A298312851083163F0806
:10021800013A031D122983128515142983128511A9
:10022800C1308316D400E520FF30C800C70108009C
:1002380083120313EF0106170512051085148511A3
:0C02480033308316D400E520C801080004
:0E0254000030831203138C1A0130F0000800F2
:10026200DE208A110A128000840ACA0A0319CB0A04
:08027200F003031D312908000F
:10027A0083160313D3014F08F1000130F00071080F
:10028A0003194B29F00D7010FF3E45297008D20062
:10029A004E08840070080005F10071080130031D42
:1002AA000030F0005108F006031974295008003C88
:1002BA0003186429D120D1208316D0035B294E0864
:1002CA00840052080005F10071080130031D003056
:1002DA00F0005108F00603197429FF30D3005308BF
:0402EA00F000080018
:1002EE00831203131A08F100981C7F29181218168E
:0602FE007108F000080089
:1003040083160313981690308312980083160615EB
:10031400861283128C1E91291A08F0008B2908007A
:10032400BA237E30831603138F00831203178510BC
:100334000511851105160C30831603139900181541
:1003440082210630FB001330FC00AD30FD00FD0BB4
:10035400A929FC0BA929FB0BA929000000004430A2
:100364008316D400E5209B0107309C00E43085000F
:10037400BC30860002308312850086018B160B1177
:100384008316811201128111011581140114811344
:100394006430831281008B173B308316D400E52030
:1003A40083164708013A031DD829FC2064002A213A
:1003B40070080319302A772170088316C900700861
:1003C400453A031DEB2983126F08003A031DEB29FC
:1003D400FC2083164908523A031DF62983126F083C
:1003E400013A031DF6291C2183122308A400831655
:1003F40049082B3A031D012A01308312A3008316F6
:1004040049082D3A031D082A8312A30183164908BB
:10041400423A031D0F2A0130C0004908483A031D1F
:10042400142AC0014908413A031D1E2A19308312B7
:10043400A1000030A2000514831224082306031926
:10044400252AA501A6012E308316D400E5204908EB
:10045400D700C7202C308316D400E52083126F0800
:10046400003A031D432A2318392A85113A2A85158F
:1004740000302206031D402A00302106031D432AB2
:1004840005100030861B01308316C00040184D2A29
:10049400831286104F2A831286148030003AF000AB
:1004A40080308316480670020318642A83120519E3
:1004B400642A6F08003A031D642A27308316D40087
:1004C400E520FC2083164808003A031D912A0630D3
:1004D400CE000330CF001430D000D1013D2170088C
:1004E4000319902AA530D400E5204008013A031DE1
:1004F4007D2A831285108312061005120510061337
:10050400EF018316BF010130C8008312ED01EE0133
:10051400A501A601A0308316D400E5203B2B480892
:10052400013A031D9F2A8312861D9E2AFF308316DB
:10053400C800A930D400E5203B2B83164808023AB2
:10054400031DC02ABA30D400E520831206170330F5
:10055400FB000830FC007730FD00FD0BAF2AFC0BDC
:10056400AF2AFB0BAF2A03308316C8008312ED01B8
:10057400EE01B5308316D400E5203B2B4808033A3E
:10058400031DE22A8312861DCD2AFF308316C8007C
:10059400AF30D400E52083160630CE000430CF00FF
:1005A4000130D000D1013D2170080319E12AFF3048
:1005B400C8008312061452308316D400E5203B2B66
:1005C4004808043A031DF32A4D30D400E520831271
:1005D400ED01EE0105308316C8004830D400E52053
:1005E4003B2B4808053A0319FC2A4808073A031923
:1005F400FC2A102B0630CE000430CF000130D0008E
:10060400D1013D21700803190F2BFF30C80083125C
:10061400061458308316D400E5203B2B4808063ACC
:10062400031D262B8312861D262B68308316D400C7
:10063400E52083128514ED01EE0107308316C8000E
:100644006330D400E5203B2B83164808083A031D89
:10065400312B5E30D400E5200930C8003B2B48081C
:10066400FF3A031D3B2B83120613861D3B2B831677
:06067400C801D2293C2B55
:10077400213084004C3083120313F000423083167E
:10078400CA000330CB003121A0308400053083122D
:10079400F000B2308316CA000330CB0031216D3033
:1007A400840002308312F000B7308316CA0003308D
:1007B400CB003121A53084001A308312F0008E3032
:1007C4008316CA000330CB0031216F30840001301E
:1007D4008312F00003308316CA000030CB003121AD
:1007E400BF3084000A308312F000A8308316CA0098
:0807F4000330CB0031210800A5
:020006000034C4
:04068400003400340A
:0206880000343C
:02068A0000343A
:04068C000034003402
:0A0690004434453453340A34003476
:04069A000A340034EA
:0A069E00413443344B34203400345F
:1006A80055346E3474347234693470340A34003416
:1006B80049346E346934743420346F346B340A34FA
:0206C8000034FC
:0806CA00483469340A3400349D
:0A06D2004134203435340A3400347A
:0A06DC004134203434340A34003471
:0C06E60041344634203432340A340034ED
:0C06F20041344634203433340A340034E0
:0A06FE004134203439340A3400344A
:0A0708004134203437340A34003441
:0A0712004134203436340A34003438
:08071C00413452340A34003468
:0C07240041344634203431340A340034AF
:0C07300041344634203431340A340034A3
:0A073C004134203433340A34003411
:0A0746004134203432340A34003408
:02075000003473
:02075200013470
:0C07540054345234493450340A34003418
:02076000003463
:02076200003461
:0A0764004134203431340A340034EB
:04076E00003400341F
:04400E00743FFF3FBD
:00000001FF
