:02000000722963
:10000800FF00030E83018316C2000A08C3008A0199
:1000180070088312A0008030F00080302206700241
:10002800031D182821080C3C03182D288030003A9D
:10003800F000803083163806700203182928013032
:10004800B60001308312B1002C288312A101A2014D
:100058003028A10A0319A20A83163808013A031D99
:100068004A288030F000803083126F067002031D2A
:100078003F286E08C83C0318452802308316B8008C
:1000880049288312EE0A0319EF0AA62883163808AE
:10009800033A031D64288030F000803083126F0615
:1000A8007002031D59286E08C83C03185F280430E5
:1000B8008316B80063288312EE0A0319EF0AA628EC
:1000C80083163808053A031D7F288030013AF0006E
:1000D800803083126F067002031D74286E08F43C8A
:1000E80003187A2806308316B8007E288312EE0A91
:1000F8000319EF0AA62883163808073A031D99281A
:100108008030F000803083126F067002031D8E2845
:100118006E08643C0318942808308316B8009828A1
:100128008312EE0A0319EF0AA62883163808093A3B
:100138000319A3283808003A0319A328A62883120C
:10014800EE01EF018312643081000B112008F000EA
:10015800831643088A00420E8300FF0E7F0E0900B3
:10016800831603139818BA280000B4284D08831280
:0401780099000800E2
:10017C00023083120313FC004930FD00FD0BC42830
:0A018C00FC0BC4280000000008006E
:0E0196008316031341088A0040088200080007
:1001A40083160313CC014A0884000008CB004B08D3
:1001B400003A0319E8284B08CD00B4208316CC0A72
:0E01C4004C084A0784000008CB00D928080028
:1001D200013083160313B500831206130516831626
:1001E2003708013A031DF72883128514831636084F
:1001F200013A031DFF2883128515012983128511F7
:10020200B9308316CA00D220FF30B8008312B10180
:020212000800E2
:1002140083160313C9014508F1000130F000710889
:1002240003191829F00D7010FF3E12297008C80038
:100234004408840070080005F10071080130031DB2
:100244000030F0004708F006031941294608003C35
:1002540003183129BE20BE208316C603282944086A
:10026400840048080005F10071080130031D0030C6
:10027400F0004708F00603194129FF30C900490876
:04028400F00008007E
:100288008316031398169030831298008316061568
:10029800861283128C1E53291A08F0004D29080073
:0E02A8000030831203138C1A0130F00008009E
:1002B600831203131A08F100981C632918121816E2
:0602C6007108F0000800C1
:1002CC00CB208A110A128000840AC00A0319C10AC1
:0802DC00F003031D6629080070
:1002E40052237E30831603138F0033309900181580
:1002F40044210630FB001330FC00AD30FD00FD0B43
:100304008129FC0B8129FB0B8129000000003B3073
:100314008316CA00D2209B0107309C00E53085007B
:10032400BC3086008312850186018B160B1183165F
:100334008112011281110115811401146430831298
:1003440081008B1732308316CA00D2208312310801
:10035400013A031DAE29E920542170080319EF293D
:100364005B2170088316BF007008453A031DBF293E
:100374003508003A031DBF29E92083122308A4008D
:1003840083163F082B3A031DCA2901308312A300A8
:1003940083163F082D3A031DD1298312A301831626
:1003A4003F08423A031DD8290130B7003F08483AB4
:1003B400031DDD29B7018312240823060319E42948
:1003C400A101A2012C308316CA00D2203F08CD001F
:1003D400B4202A308316CA00D22083163508003A86
:1003E400031DFA2983122318F9298511FA29851581
:1003F40083163718002A83128610022A8312861461
:100404008030003AF00080308316380670020318FA
:10041400172A83120519172A83163508003A031D73
:10042400172A2530CA00D220E92083163808003A5A
:10043400031D432A0630C4000330C5001430C6002F
:10044400C7010A2170080319422A3F30CA00D2208A
:100454003708013A031D302A8312851483120610CB
:10046400051206138316B501B6010130B8008312D4
:10047400EE01EF01A101A201A0308316CA00D2202F
:10048400DD2A3808013A031D512A8312861D502A99
:10049400FF308316B8006830CA00D220DD2A8316E4
:1004A4003808023A031D6F2AB030CA00D2208312E2
:1004B40006176830FC00E430FD00FD0B5F2AFC0BDE
:1004C4005F2A000003308316B8008312EE01EF01A7
:1004D400AB308316CA00D220DD2A3808033A031D44
:1004E400892A8312861D7C2AFF308316B800A53022
:1004F400CA00D2208312061A882AFF308316B80055
:100504008312061462308316CA00D220DD2A8316B1
:100514003808043A031D9B2A4E30CA00D2208312A5
:10052400EE01EF0105308316B8004930CA00D2202D
:10053400DD2A3808053A0319A42A3808073A0319AA
:10054400A42AB12A8312061AB02AFF308316B800EF
:100554008312061443308316CA00D220DD2A831680
:100564003808063A031DC82A8312861DC82A5D303E
:100574008316CA00D22083128510EE01EF010730E2
:100584008316B8005830CA00D220DD2A83163808F2
:10059400083A031DD32A5330CA00D2200930B800C8
:1005A400DD2A3808FF3A031DDD2A8312861DDD2A61
:0A05B40006138316B801A829DE2AF9
:1006A400213084004D3083120313F000E4308316AC
:1006B400C0000230C1006621A0308400053003135D
:1006C400F0004B308316C0000330C10066216E3049
:1006D400840002300313F00050308316C00003304E
:1006E400C1006621A53084001A300313F0003130B4
:0C06F4008316C0000330C100662108001E
:0405C80000340034C7
:0205CC000034F9
:0205CE000034F7
:0A05D0004434453453340A34003437
:0405DA000A340034AB
:0A05DE00413443344B342034003420
:0205E8000034DD
:1005EA0049346E346934743420346F346B340A34C9
:0205FA000034CB
:0805FC00483469340A3400346C
:08060400413452340A34003481
:0C060C0041344634203433340A340034C6
:0A0618004134203435340A34003434
:0A0622004134203434340A3400342B
:0A062C004134203439340A3400341C
:0A0636004134203437340A34003414
:0A0640004134203436340A3400340B
:0C064A0041344634203432340A34003489
:0C06560041344634203431340A3400347E
:0C06620041344634203431340A34003472
:0A066E004134203433340A340034E0
:0A0678004134203432340A340034D7
:02068200003442
:02068400003440
:0206860001343D
:0206880000343C
:0C068A0054345234493450340A340034E3
:0A0696004134203431340A340034BA
:0406A00000340034EE
:04400E00703FFF3FC1
:00000001FF
