:020000000929CC
:10000800FF00030E83018316BC000A08BD008A01A5
:1000180070088312A0008030F00080302206700241
:10002800031D182821080A3C03182C288030003AA0
:10003800F00080306E0670020318292801308316FC
:10004800B10001308312B1002B28A101A2012F2891
:10005800A10A0319A20A6E08013A031D412880303B
:10006800F000803069067002031D3C286808C83C0F
:10007800031840280230EE0087286E08033A031D53
:1000880053288030F000803069067002031D4E2826
:100098006808C83C031852280430EE0087286E0808
:1000A800053A031D66288030013AF0008030690661
:1000B8007002031D61286808F43C0318652806309F
:1000C800EE0087286E08073A031D78288030F00074
:1000D800803069067002031D73286808643C0318A1
:1000E80077280830EE0087286E08093A0319812816
:1000F8006E08003A031981288428E801E901872855
:10010800E80A0319E90A643081000B112008F0009D
:1001180083163D088A003C0E8300FF0E7F0E0900FF
:100128008316031398189A2800009428410883120C
:040138009900080022
:0E013C00831603133B088A003A08820008006D
:10014A0083160313C0013E0884000008BF003F085D
:10015A00003A0319BB283F08C10094208316C00A3D
:0E016A0040083E0784000008BF00AC280800D3
:100178008316031398169030831298008316061579
:10018800861283128C1ECB281A08F000C528080096
:10019800831203131A08F100981CD4281812181691
:0601A8007108F0000800E0
:1001AE009E208A110A128000840ABA0A0319BB0A19
:0801BE00F003031DD72808001F
:0E01C6000030831203138C1A0130F000080081
:1001D400013083160313B2008312061305166F0849
:1001E400013A031DF628851483163108013A031DCC
:1001F400FE2883128515002983128511B3308316D6
:0E020400BE00A520FF308312EE00B1010800FD
:10021200BC227E30831603138F00333099001815E9
:10022200BC200630FB001330FC00AD30FD00FD0B9E
:100232001829FC0B1829FB0B1829000000003B3081
:100242008316BE00A5209B0107309C00E530850087
:10025200BC3086008312850186018B160B11831632
:10026200811201128111011581140114643083126B
:1002720081008B1732308316BE00A520831231080D
:10028200013A031D4529EA20E32070080319852954
:10029200CC2070088316B9007008453A031D522914
:1002A200EA2083122308A400831639082B3A031D7F
:1002B2005D2901308312A300831639082D3A031DEC
:1002C20064298312A30183163908423A031D6C295B
:1002D20001308312EF0083163908483A031D73294F
:1002E2008312EF0183122408230603197A29A1013C
:1002F200A2012C308316BE00A5203908C10094202B
:100302002A308316BE00A52083163208003A031D48
:100312009029831223188F2985119029851583121C
:100322006F1895298610962986148030003AF000BD
:1003320080306E0670020318A9290519A9298316AF
:100342003208003A031DA9292530BE00A520EA2063
:1003520083126E08003A031DCC298619CB296A3014
:100362008316BE00A52083126F08013A031DBA2925
:1003720085140610051206138316B201B10101306D
:100382008312EE00E801E901A101A20163308316A4
:10039200BE00A5204D2A83126E08013A0319D62900
:1003A2006E08033A0319D629E929861DDE29FF3092
:1003B200EE00AB308316BE00A5208312061AE82990
:1003C200FF30EE000614A5308316BE00A5204D2A8C
:1003D20083126E08023A031DFD29A0308316BE0067
:1003E200A520831206170330EE00E801E9015E3012
:1003F2008316BE00A5204D2A83126E08043A031DFF
:10040200102A4A308316BE00A5208312E801E901B2
:100412000530EE0045308316BE00A5204D2A83121A
:100422006E08053A03191A2A6E08073A03191A2A9E
:10043200242A061A232AFF30EE0006143F308316C0
:10044200BE00A5204D2A83126E08063A031D382AE3
:1004520059308316BE00A52083128510E801E901F8
:100462000730EE0054308316BE00A5204D2A8312B9
:100472006E08083A031D452A4F308316BE00A52098
:1004820009308312EE004D2A6E08FF3A031D4D2AF1
:0C049200861D4D2A0613EE013F294E2A5C
:10057800213084004D3083120313F0005430831669
:10058800BA000230BB00D720A0308400113083129B
:100598000313F000A1308316BA000230BB00D72045
:1005A8006E308400023083120313F000BA308316D1
:1005B800BA000230BB00D720B13084000830831263
:1005C8000313F000B2308316BA000230BB00D72004
:0205D800080019
:0404A80000340034E8
:0204AC0000341A
:0204AE00003418
:0A04B0004434453453340A34003458
:0404BA000A340034CC
:0A04BE00413443344B342034003441
:0204C8000034FE
:1004CA0049346E346934743420346F346B340A34EA
:0204DA000034EC
:0804DC00483469340A3400348D
:0C04E40041344634203433340A340034F0
:0A04F0004134203435340A3400345E
:0A04FA004134203434340A34003455
:0A0504004134203439340A34003445
:0A050E004134203437340A3400343D
:0A0518004134203436340A34003434
:0A0522004134203433340A3400342D
:0A052C004134203431340A34003425
:040536000034003459
:08053A00413452340A3400344C
:0A0542004134203432340A3400340E
:0C054C0041344634203432340A34003488
:0C05580041344634203431340A3400347D
:02056400003461
:0205660000345F
:0C05680054345234493450340A34003406
:02057400003451
:0205760001344E
:04400E00703FFF3FC1
:00000001FF
