:02000000752960
:10000800FF00030E83018316C4000A08C5008A0195
:1000180070088312A0008030F00080302206700241
:10002800031D18282108323C031831288030003A73
:10003800F000803083163A06700203182D2839081C
:10004800013A031D2D280130B80001308312EF005A
:1000580030288312A101A2013428A10A0319A20A97
:1000680083163A08013A031D4B288030F00080308F
:1000780026067002031D42282508C83C0318472895
:100088000230BA004A28A50A0319A60A99283A088C
:10009800033A031D61288030F00080302606700284
:1000A800031D58282508C83C03185D280430BA00E9
:1000B8006028A50A0319A60A99283A08053A031DD3
:1000C80078288030013AF000803026067002031D3F
:1000D8006F282508F43C031874280630BA007728DE
:1000E800A50A0319A60A99283A08073A031D8E2873
:1000F8008030F000803026067002031D8528250810
:10010800643C03188A280830BA008D28A50A031908
:10011800A60A99283A08093A031997283A08003A8A
:10012800031997289928A501A6018030F00080308E
:10013800831224067002031DA3282308003C031819
:10014800A9280130A302031CA403643081000B1109
:100158002008F000831645088A00440E8300FF0E2D
:040168007F0E0900FD
:10016C00831603139818BC280000B6284F08831276
:04017C0099000800DE
:10018000023083120313FC004930FD00FD0BC6282A
:0A019000FC0BC62800000000080068
:0E019A008316031343088A00420882000800FF
:1001A80083160313CE014C0884000008CD004D08C7
:1001B800003A0319EA284D08CF00B6208316CE0A64
:0E01C8004E084C0784000008CD00DB2808001C
:1001D600013083160313B7008312061305160514A0
:1001E60083163908013A031DFA28831285108316EF
:1001F6003808013A031D0229831285150429831242
:100206008511BB308316CC00D420FF30BA00831290
:04021600EF010800EC
:10021A0083160313CB014708F1000130F00071087F
:10022A0003191B29F00D7010FF3E15297008CA002A
:10023A004608840070080005F10071080130031DAA
:10024A000030F0004908F006031944294808003C28
:10025A0003183429C020C0208316C8032B29460856
:10026A0084004A080005F10071080130031D0030BE
:10027A00F0004908F00603194429FF30CB004B0867
:04028A00F000080078
:10028E008316031398169030831298008316061562
:10029E00861283128C1E56291A08F0005029080067
:0E02AE000030831203138C1A0130F000080098
:1002BC00831203131A08F100981C662918121816D9
:0602CC007108F0000800BB
:1002D200CD208A110A128000840AC20A0319C30AB5
:0802E200F003031D6929080067
:1002EA0080237E30831603138F0083120317851031
:1002FA000511851105160C3083160313990018157C
:10030A0047210630FB001330FC00AD30FD00FD0B29
:10031A008C29FC0B8C29FB0B8C29000000003C303B
:10032A008316CC00D4209B0107309C00E430850062
:10033A00BC30860002308312850086018B160B11B1
:10034A00831681120112811101158114011464307E
:10035A00831281008B1733308316CC00D42083128A
:10036A006F08013A031DBA29EB206400572170086F
:10037A000319062A5E2170088316C1007008453ADF
:10038A00031DCC293708003A031DCC29EB20831220
:10039A002508B200831641082B3A031DD7290130DC
:1003AA008312A500831641082D3A031DDE29831204
:1003BA00A50183164108423A031DE5290130B90017
:1003CA004108483A031DEA29B9014108413A031D87
:1003DA00F42919308312A3000030A40005148312F3
:1003EA00320825060319FB29A101A2012D30831623
:1003FA00CC00D4204108CF00B6202B308316CC0085
:10040A00D42083163708003A031D1A2A83122518A6
:10041A00102A8511112A851500302406031D172A72
:10042A0000302306031D1A2A051083163918202ABC
:10043A0083128610222A831286148030003AF00032
:10044A00803083163A0670020318372A8312051978
:10045A00372A83163708003A031D372A2630CC007C
:10046A00D420EB2083163A08003A031D642A06308A
:10047A00C6000330C7001430C800C9010D21700836
:10048A000319632A4030CC00D4203908013A031DED
:10049A00502A8312851083120610051205100613BE
:1004AA008316B701B8010130BA00A501A60183126B
:1004BA00A101A201A0308316CC00D4200A2B3A084D
:1004CA00013A031D722A8312861D712AFF30831690
:1004DA00BA006930CC00D4200A2B83163A08023AB3
:1004EA00031D912AB230CC00D420831206170330A0
:1004FA00FB000830FC007730FD00FD0B822AFC0B64
:10050A00822AFB0B822A03308316BA00A501A601B0
:10051A00AD30CC00D4200A2B3A08033A031DB32A83
:10052A008312861D9E2AFF308316BA00A730CC009C
:10053A00D42083160630C6000430C7000130C80034
:10054A00C9010D2170080319B22AFF30BA008312BB
:10055A00061463308316CC00D4200A2B3A08043AD6
:10056A00031DC22A4F30CC00D420A501A6010530B4
:10057A00BA004A30CC00D4200A2B3A08053A0319AB
:10058A00CB2A3A08073A0319CB2ADF2A0630C600D3
:10059A000430C7000130C800C9010D2170080319D1
:1005AA00DE2AFF30BA008312061444308316CC00C8
:1005BA00D4200A2B3A08063A031DF52A8312861D0F
:1005CA00F52A5E308316CC00D42083128514831654
:1005DA00A501A6010730BA005930CC00D4200A2B55
:1005EA0083163A08083A031D002B5430CC00D42055
:1005FA000930BA000A2B3A08FF3A031D0A2B831264
:0E060A000613861D0A2B8316BA01B4290B2B8A
:10070000213084004E3083120313F0001130831621
:10071000C2000330C3006921A03084001730831267
:10072000F0005F308316C2000330C30069216F30D0
:10073000840001308312F00003308316C2000030C1
:10074000C3006921B73084000A308312F00076308C
:0C0750008316C2000330C30069210800BA
:020006000034C4
:04062200003400346C
:040626000034003468
:02062A0000349A
:0A062C004434453453340A340034DA
:040636000A3400344E
:0A063A00413443344B3420340034C3
:02064400003480
:1006460049346E346934743420346F346B340A346C
:0206560000346E
:08065800483469340A3400340F
:08066000413452340A34003425
:0C06680041344634203433340A3400346A
:0A0674004134203435340A340034D8
:0A067E004134203434340A340034CF
:0A0688004134203439340A340034C0
:0A0692004134203437340A340034B8
:0A069C004134203436340A340034AF
:0C06A60041344634203432340A3400342D
:0C06B20041344634203431340A34003422
:0A06BE004134203431340A34003492
:0406C80000340034C6
:0C06CC0041344634203431340A34003408
:0A06D8004134203433340A34003476
:0A06E2004134203432340A3400346D
:0206EC000034D8
:0206EE000034D6
:0206F0000134D3
:0206F2000034D2
:0C06F40054345234493450340A34003479
:04400E00743FFF3FBD
:00000001FF
